{
  "contractName": "P2P",
  "abi": [
    {
      "anonymous": false,
      "inputs": [
        {
          "indexed": false,
          "internalType": "address",
          "name": "owner",
          "type": "address"
        },
        {
          "indexed": false,
          "internalType": "uint256",
          "name": "amount",
          "type": "uint256"
        }
      ],
      "name": "FundsPulled",
      "type": "event"
    },
    {
      "anonymous": false,
      "inputs": [
        {
          "indexed": false,
          "internalType": "uint256",
          "name": "id",
          "type": "uint256"
        },
        {
          "indexed": false,
          "internalType": "bytes32",
          "name": "name",
          "type": "bytes32"
        },
        {
          "indexed": false,
          "internalType": "uint256",
          "name": "price",
          "type": "uint256"
        },
        {
          "indexed": false,
          "internalType": "string",
          "name": "image",
          "type": "string"
        },
        {
          "indexed": false,
          "internalType": "string",
          "name": "description",
          "type": "string"
        },
        {
          "indexed": false,
          "internalType": "address",
          "name": "seller",
          "type": "address"
        }
      ],
      "name": "ItemAdded",
      "type": "event"
    },
    {
      "anonymous": false,
      "inputs": [
        {
          "indexed": false,
          "internalType": "uint256",
          "name": "itemID",
          "type": "uint256"
        },
        {
          "indexed": false,
          "internalType": "address",
          "name": "buyer",
          "type": "address"
        },
        {
          "indexed": false,
          "internalType": "address",
          "name": "seller",
          "type": "address"
        }
      ],
      "name": "ItemPurchased",
      "type": "event"
    },
    {
      "anonymous": false,
      "inputs": [
        {
          "indexed": false,
          "internalType": "uint256",
          "name": "itemID",
          "type": "uint256"
        }
      ],
      "name": "ItemRemoved",
      "type": "event"
    },
    {
      "inputs": [
        {
          "internalType": "address",
          "name": "",
          "type": "address"
        }
      ],
      "name": "_pendingWithdrawals",
      "outputs": [
        {
          "internalType": "uint256",
          "name": "",
          "type": "uint256"
        }
      ],
      "stateMutability": "view",
      "type": "function",
      "constant": true
    },
    {
      "inputs": [
        {
          "internalType": "bytes32",
          "name": "name",
          "type": "bytes32"
        },
        {
          "internalType": "uint256",
          "name": "price",
          "type": "uint256"
        },
        {
          "internalType": "string",
          "name": "image",
          "type": "string"
        },
        {
          "internalType": "string",
          "name": "description",
          "type": "string"
        }
      ],
      "name": "addNewItem",
      "outputs": [
        {
          "internalType": "uint256",
          "name": "itemID",
          "type": "uint256"
        }
      ],
      "stateMutability": "nonpayable",
      "type": "function"
    },
    {
      "inputs": [
        {
          "internalType": "uint256",
          "name": "itemID",
          "type": "uint256"
        }
      ],
      "name": "getItem",
      "outputs": [
        {
          "internalType": "bytes32",
          "name": "name",
          "type": "bytes32"
        },
        {
          "internalType": "uint256",
          "name": "price",
          "type": "uint256"
        },
        {
          "internalType": "string",
          "name": "image",
          "type": "string"
        },
        {
          "internalType": "string",
          "name": "description",
          "type": "string"
        },
        {
          "internalType": "address",
          "name": "seller",
          "type": "address"
        },
        {
          "internalType": "uint256",
          "name": "status",
          "type": "uint256"
        }
      ],
      "stateMutability": "view",
      "type": "function",
      "constant": true
    },
    {
      "inputs": [],
      "name": "getAllItem",
      "outputs": [
        {
          "components": [
            {
              "internalType": "bytes32",
              "name": "name",
              "type": "bytes32"
            },
            {
              "internalType": "uint256",
              "name": "price",
              "type": "uint256"
            },
            {
              "internalType": "string",
              "name": "image",
              "type": "string"
            },
            {
              "internalType": "string",
              "name": "description",
              "type": "string"
            },
            {
              "internalType": "address",
              "name": "seller",
              "type": "address"
            },
            {
              "internalType": "enum P2P.ItemStatus",
              "name": "status",
              "type": "uint8"
            }
          ],
          "internalType": "struct P2P.Item[]",
          "name": "",
          "type": "tuple[]"
        }
      ],
      "stateMutability": "view",
      "type": "function",
      "constant": true
    },
    {
      "inputs": [
        {
          "internalType": "uint256",
          "name": "itemID",
          "type": "uint256"
        }
      ],
      "name": "buyItem",
      "outputs": [],
      "stateMutability": "payable",
      "type": "function",
      "payable": true
    },
    {
      "inputs": [
        {
          "internalType": "uint256",
          "name": "itemID",
          "type": "uint256"
        }
      ],
      "name": "removeItem",
      "outputs": [],
      "stateMutability": "nonpayable",
      "type": "function"
    },
    {
      "inputs": [],
      "name": "pullFunds",
      "outputs": [
        {
          "internalType": "bool",
          "name": "",
          "type": "bool"
        }
      ],
      "stateMutability": "nonpayable",
      "type": "function"
    }
  ],
  "bytecode": "0x608060405234801561001057600080fd5b5061167f806100206000396000f3fe6080604052600436106100705760003560e01c8063c3662b281161004e578063c3662b281461011d578063d852bc3a1461015a578063e43a0bb214610185578063e7fb74c7146101b057610070565b80633129e773146100755780634354a891146100b757806371329171146100f4575b600080fd5b34801561008157600080fd5b5061009c60048036038101906100979190610dde565b6101cc565b6040516100ae96959493929190610f0d565b60405180910390f35b3480156100c357600080fd5b506100de60048036038101906100d991906110dd565b610403565b6040516100eb919061117c565b60405180910390f35b34801561010057600080fd5b5061011b60048036038101906101169190610dde565b6105af565b005b34801561012957600080fd5b50610144600480360381019061013f91906111c3565b61075a565b604051610151919061117c565b60405180910390f35b34801561016657600080fd5b5061016f610772565b60405161017c9190611430565b60405180910390f35b34801561019157600080fd5b5061019a61099a565b6040516101a7919061146d565b60405180910390f35b6101ca60048036038101906101c59190610dde565b610afd565b005b60008060608060008086600073ffffffffffffffffffffffffffffffffffffffff166000828154811061020257610201611488565b5b906000526020600020906005020160040160009054906101000a900473ffffffffffffffffffffffffffffffffffffffff1673ffffffffffffffffffffffffffffffffffffffff160361025457600080fd5b600080898154811061026957610268611488565b5b906000526020600020906005020190508060000154816001015482600201836003018460040160009054906101000a900473ffffffffffffffffffffffffffffffffffffffff168560040160149054906101000a900460ff1660028111156102d4576102d3611293565b5b8380546102e0906114e6565b80601f016020809104026020016040519081016040528092919081815260200182805461030c906114e6565b80156103595780601f1061032e57610100808354040283529160200191610359565b820191906000526020600020905b81548152906001019060200180831161033c57829003601f168201915b5050505050935082805461036c906114e6565b80601f0160208091040260200160405190810160405280929190818152602001828054610398906114e6565b80156103e55780601f106103ba576101008083540402835291602001916103e5565b820191906000526020600020905b8154815290600101906020018083116103c857829003601f168201915b50505050509250975097509750975097509750505091939550919395565b6000806040518060c001604052808781526020018681526020018581526020018481526020013373ffffffffffffffffffffffffffffffffffffffff1681526020016000600281111561045957610458611293565b5b8152509080600181540180825580915050600190039060005260206000209060050201600090919091909150600082015181600001556020820151816001015560408201518160020190805190602001906104b5929190610cf1565b5060608201518160030190805190602001906104d2929190610cf1565b5060808201518160040160006101000a81548173ffffffffffffffffffffffffffffffffffffffff021916908373ffffffffffffffffffffffffffffffffffffffff16021790555060a08201518160040160146101000a81548160ff0219169083600281111561054557610544611293565b5b02179055505050600060016000805490506105609190611546565b90507fe15bc583768ae2111c4df91fa2ad956379da79ddceceb079bc6c95a12da640e281878787873360405161059b9695949392919061157a565b60405180910390a180915050949350505050565b80600073ffffffffffffffffffffffffffffffffffffffff16600082815481106105dc576105db611488565b5b906000526020600020906005020160040160009054906101000a900473ffffffffffffffffffffffffffffffffffffffff1673ffffffffffffffffffffffffffffffffffffffff160361062e57600080fd5b600080838154811061064357610642611488565b5b906000526020600020906005020190503373ffffffffffffffffffffffffffffffffffffffff168160040160009054906101000a900473ffffffffffffffffffffffffffffffffffffffff1673ffffffffffffffffffffffffffffffffffffffff16146106af57600080fd5b600060028111156106c3576106c2611293565b5b8160040160149054906101000a900460ff1660028111156106e7576106e6611293565b5b146106f157600080fd5b60028160040160146101000a81548160ff0219169083600281111561071957610718611293565b5b02179055507fa54eda4149a0fb9258911733973ecf1f6762357ed371fc6d1e63123bbce23bed8360405161074d919061117c565b60405180910390a1505050565b60016020528060005260406000206000915090505481565b60606000805480602002602001604051908101604052809291908181526020016000905b8282101561099157838290600052602060002090600502016040518060c001604052908160008201548152602001600182015481526020016002820180546107dd906114e6565b80601f0160208091040260200160405190810160405280929190818152602001828054610809906114e6565b80156108565780601f1061082b57610100808354040283529160200191610856565b820191906000526020600020905b81548152906001019060200180831161083957829003601f168201915b5050505050815260200160038201805461086f906114e6565b80601f016020809104026020016040519081016040528092919081815260200182805461089b906114e6565b80156108e85780601f106108bd576101008083540402835291602001916108e8565b820191906000526020600020905b8154815290600101906020018083116108cb57829003601f168201915b505050505081526020016004820160009054906101000a900473ffffffffffffffffffffffffffffffffffffffff1673ffffffffffffffffffffffffffffffffffffffff1673ffffffffffffffffffffffffffffffffffffffff1681526020016004820160149054906101000a900460ff16600281111561096c5761096b611293565b5b600281111561097e5761097d611293565b5b8152505081526020019060010190610796565b50505050905090565b600080600160003373ffffffffffffffffffffffffffffffffffffffff1673ffffffffffffffffffffffffffffffffffffffff16815260200190815260200160002054116109e757600080fd5b6000600160003373ffffffffffffffffffffffffffffffffffffffff1673ffffffffffffffffffffffffffffffffffffffff16815260200190815260200160002054905060003373ffffffffffffffffffffffffffffffffffffffff166108fc839081150290604051600060405180830381858888f1935050505090508015610af3576000600160003373ffffffffffffffffffffffffffffffffffffffff1673ffffffffffffffffffffffffffffffffffffffff168152602001908152602001600020819055507f1a6b3ffc38e569eb77b736c56f6d826b44ad9f3df5f63ec4eac3dcb444668ea53383604051610ae09291906115e9565b60405180910390a1600192505050610afa565b6000925050505b90565b80600073ffffffffffffffffffffffffffffffffffffffff1660008281548110610b2a57610b29611488565b5b906000526020600020906005020160040160009054906101000a900473ffffffffffffffffffffffffffffffffffffffff1673ffffffffffffffffffffffffffffffffffffffff1603610b7c57600080fd5b6000808381548110610b9157610b90611488565b5b9060005260206000209060050201905060006002811115610bb557610bb4611293565b5b8160040160149054906101000a900460ff166002811115610bd957610bd8611293565b5b14610be357600080fd5b3481600101541015610bf457600080fd5b8060010154600160008360040160009054906101000a900473ffffffffffffffffffffffffffffffffffffffff1673ffffffffffffffffffffffffffffffffffffffff1673ffffffffffffffffffffffffffffffffffffffff1681526020019081526020016000208190555060018160040160146101000a81548160ff02191690836002811115610c8857610c87611293565b5b02179055507f3d33dab2887eb74204441fe6858b6ee245b3875af43d57969005ca2ea686395083338360040160009054906101000a900473ffffffffffffffffffffffffffffffffffffffff16604051610ce493929190611612565b60405180910390a1505050565b828054610cfd906114e6565b90600052602060002090601f016020900481019282610d1f5760008555610d66565b82601f10610d3857805160ff1916838001178555610d66565b82800160010185558215610d66579182015b82811115610d65578251825591602001919060010190610d4a565b5b509050610d739190610d77565b5090565b5b80821115610d90576000816000905550600101610d78565b5090565b6000604051905090565b600080fd5b600080fd5b6000819050919050565b610dbb81610da8565b8114610dc657600080fd5b50565b600081359050610dd881610db2565b92915050565b600060208284031215610df457610df3610d9e565b5b6000610e0284828501610dc9565b91505092915050565b6000819050919050565b610e1e81610e0b565b82525050565b610e2d81610da8565b82525050565b600081519050919050565b600082825260208201905092915050565b60005b83811015610e6d578082015181840152602081019050610e52565b83811115610e7c576000848401525b50505050565b6000601f19601f8301169050919050565b6000610e9e82610e33565b610ea88185610e3e565b9350610eb8818560208601610e4f565b610ec181610e82565b840191505092915050565b600073ffffffffffffffffffffffffffffffffffffffff82169050919050565b6000610ef782610ecc565b9050919050565b610f0781610eec565b82525050565b600060c082019050610f226000830189610e15565b610f2f6020830188610e24565b8181036040830152610f418187610e93565b90508181036060830152610f558186610e93565b9050610f646080830185610efe565b610f7160a0830184610e24565b979650505050505050565b610f8581610e0b565b8114610f9057600080fd5b50565b600081359050610fa281610f7c565b92915050565b600080fd5b600080fd5b7f4e487b7100000000000000000000000000000000000000000000000000000000600052604160045260246000fd5b610fea82610e82565b810181811067ffffffffffffffff8211171561100957611008610fb2565b5b80604052505050565b600061101c610d94565b90506110288282610fe1565b919050565b600067ffffffffffffffff82111561104857611047610fb2565b5b61105182610e82565b9050602081019050919050565b82818337600083830152505050565b600061108061107b8461102d565b611012565b90508281526020810184848401111561109c5761109b610fad565b5b6110a784828561105e565b509392505050565b600082601f8301126110c4576110c3610fa8565b5b81356110d484826020860161106d565b91505092915050565b600080600080608085870312156110f7576110f6610d9e565b5b600061110587828801610f93565b945050602061111687828801610dc9565b935050604085013567ffffffffffffffff81111561113757611136610da3565b5b611143878288016110af565b925050606085013567ffffffffffffffff81111561116457611163610da3565b5b611170878288016110af565b91505092959194509250565b60006020820190506111916000830184610e24565b92915050565b6111a081610eec565b81146111ab57600080fd5b50565b6000813590506111bd81611197565b92915050565b6000602082840312156111d9576111d8610d9e565b5b60006111e7848285016111ae565b91505092915050565b600081519050919050565b600082825260208201905092915050565b6000819050602082019050919050565b61122581610e0b565b82525050565b61123481610da8565b82525050565b600082825260208201905092915050565b600061125682610e33565b611260818561123a565b9350611270818560208601610e4f565b61127981610e82565b840191505092915050565b61128d81610eec565b82525050565b7f4e487b7100000000000000000000000000000000000000000000000000000000600052602160045260246000fd5b600381106112d3576112d2611293565b5b50565b60008190506112e4826112c2565b919050565b60006112f4826112d6565b9050919050565b611304816112e9565b82525050565b600060c083016000830151611322600086018261121c565b506020830151611335602086018261122b565b506040830151848203604086015261134d828261124b565b91505060608301518482036060860152611367828261124b565b915050608083015161137c6080860182611284565b5060a083015161138f60a08601826112fb565b508091505092915050565b60006113a6838361130a565b905092915050565b6000602082019050919050565b60006113c6826111f0565b6113d081856111fb565b9350836020820285016113e28561120c565b8060005b8581101561141e57848403895281516113ff858261139a565b945061140a836113ae565b925060208a019950506001810190506113e6565b50829750879550505050505092915050565b6000602082019050818103600083015261144a81846113bb565b905092915050565b60008115159050919050565b61146781611452565b82525050565b6000602082019050611482600083018461145e565b92915050565b7f4e487b7100000000000000000000000000000000000000000000000000000000600052603260045260246000fd5b7f4e487b7100000000000000000000000000000000000000000000000000000000600052602260045260246000fd5b600060028204905060018216806114fe57607f821691505b602082108103611511576115106114b7565b5b50919050565b7f4e487b7100000000000000000000000000000000000000000000000000000000600052601160045260246000fd5b600061155182610da8565b915061155c83610da8565b92508282101561156f5761156e611517565b5b828203905092915050565b600060c08201905061158f6000830189610e24565b61159c6020830188610e15565b6115a96040830187610e24565b81810360608301526115bb8186610e93565b905081810360808301526115cf8185610e93565b90506115de60a0830184610efe565b979650505050505050565b60006040820190506115fe6000830185610efe565b61160b6020830184610e24565b9392505050565b60006060820190506116276000830186610e24565b6116346020830185610efe565b6116416040830184610efe565b94935050505056fea2646970667358221220b48181c4faba5aa385ab26f361480b9ec2be16394a88b8066e5e4f3d552b338b64736f6c634300080d0033",
  "immutableReferences": {},
  "source": "// SPDX-License-Identifier: MIT\npragma solidity ^0.8.13;\n\ncontract P2P {\n    enum ItemStatus {\n        active,\n        sold,\n        removed\n    }\n\n    struct Item {\n        bytes32 name;\n        uint256 price;\n        string image;\n        string description;\n        address seller;\n        ItemStatus status;\n    }\n\n    event ItemAdded(\n        uint256 id,\n        bytes32 name,\n        uint256 price,\n        string image,\n        string description,\n        address seller\n    );\n    event ItemPurchased(uint256 itemID, address buyer, address seller);\n    event ItemRemoved(uint256 itemID);\n    event FundsPulled(address owner, uint256 amount);\n\n    Item[] private _items;\n    mapping(address => uint256) public _pendingWithdrawals;\n\n    modifier onlyIfItemExists(uint256 itemID) {\n        require(_items[itemID].seller != address(0));\n        _;\n    }\n\n    function addNewItem(\n        bytes32 name,\n        uint256 price,\n        string memory image,\n        string memory description\n    ) public returns (uint256 itemID) {\n        _items.push(\n            Item({\n                name: name,\n                price: price,\n                image: image,\n                description: description,\n                seller: msg.sender,\n                status: ItemStatus.active\n            })\n        );\n\n        uint256 id = _items.length - 1;\n\n        emit ItemAdded(id, name, price, image, description, msg.sender);\n\n        return id;\n    }\n\n    function getItem(uint256 itemID)\n        public\n        view\n        onlyIfItemExists(itemID)\n        returns (\n            bytes32 name,\n            uint256 price,\n            string memory image,\n            string memory description,\n            address seller,\n            uint256 status\n        )\n    {\n        Item storage item = _items[itemID];\n        return (\n            item.name,\n            item.price,\n            item.image,\n            item.description,\n            item.seller,\n            uint256(item.status)\n        );\n    }\n\n    function getAllItem() public view returns (Item[] memory) {\n        return _items;\n    }\n\n    function buyItem(uint256 itemID) public payable onlyIfItemExists(itemID) {\n        Item storage currentItem = _items[itemID];\n\n        require(currentItem.status == ItemStatus.active);\n        require(currentItem.price >= msg.value);\n\n        _pendingWithdrawals[currentItem.seller] = currentItem.price;\n        currentItem.status = ItemStatus.sold;\n\n        emit ItemPurchased(itemID, msg.sender, currentItem.seller);\n    }\n\n    function removeItem(uint256 itemID) public onlyIfItemExists(itemID) {\n        Item storage currentItem = _items[itemID];\n\n        require(currentItem.seller == msg.sender);\n        require(currentItem.status == ItemStatus.active);\n\n        currentItem.status = ItemStatus.removed;\n\n        emit ItemRemoved(itemID);\n    }\n\n    function pullFunds() public returns (bool) {\n        require(_pendingWithdrawals[msg.sender] > 0);\n\n        uint256 outstandingFundsAmount = _pendingWithdrawals[msg.sender];\n\n        bool sendResult = payable(msg.sender).send(outstandingFundsAmount);\n        if (sendResult) {\n            _pendingWithdrawals[msg.sender] = 0;\n\n            emit FundsPulled(msg.sender, outstandingFundsAmount);\n            return true;\n        } else {\n            return false;\n        }\n    }\n}\n",
  "sourcePath": "D:\\jacky\\Documents\\blockchain-project\\contracts\\P2P.sol",
  "compiler": {
    "name": "solc",
    "version": "0.8.13+commit.abaa5c0e.Emscripten.clang"
  },
  "schemaVersion": "3.4.7",
  "updatedAt": "2022-04-26T10:24:41.564Z",
  "networkType": "ethereum",
  "devdoc": {
    "kind": "dev",
    "methods": {},
    "version": 1
  },
  "userdoc": {
    "kind": "user",
    "methods": {},
    "version": 1
  }
}