{
  "contractName": "P2P",
  "abi": [
    {
      "anonymous": false,
      "inputs": [
        {
          "indexed": false,
          "internalType": "address",
          "name": "owner",
          "type": "address"
        },
        {
          "indexed": false,
          "internalType": "uint256",
          "name": "amount",
          "type": "uint256"
        }
      ],
      "name": "FundsPulled",
      "type": "event"
    },
    {
      "anonymous": false,
      "inputs": [
        {
          "indexed": false,
          "internalType": "uint256",
          "name": "id",
          "type": "uint256"
        },
        {
          "indexed": false,
          "internalType": "string",
          "name": "image",
          "type": "string"
        },
        {
          "indexed": false,
          "internalType": "bytes32",
          "name": "name",
          "type": "bytes32"
        },
        {
          "indexed": false,
          "internalType": "uint256",
          "name": "price",
          "type": "uint256"
        },
        {
          "indexed": false,
          "internalType": "address",
          "name": "seller",
          "type": "address"
        }
      ],
      "name": "ItemAdded",
      "type": "event"
    },
    {
      "anonymous": false,
      "inputs": [
        {
          "indexed": false,
          "internalType": "uint256",
          "name": "itemID",
          "type": "uint256"
        },
        {
          "indexed": false,
          "internalType": "address",
          "name": "buyer",
          "type": "address"
        },
        {
          "indexed": false,
          "internalType": "address",
          "name": "seller",
          "type": "address"
        }
      ],
      "name": "ItemPurchased",
      "type": "event"
    },
    {
      "anonymous": false,
      "inputs": [
        {
          "indexed": false,
          "internalType": "uint256",
          "name": "itemID",
          "type": "uint256"
        }
      ],
      "name": "ItemRemoved",
      "type": "event"
    },
    {
      "inputs": [
        {
          "internalType": "address",
          "name": "",
          "type": "address"
        }
      ],
      "name": "_pendingWithdrawals",
      "outputs": [
        {
          "internalType": "uint256",
          "name": "",
          "type": "uint256"
        }
      ],
      "stateMutability": "view",
      "type": "function",
      "constant": true
    },
    {
      "inputs": [
        {
          "internalType": "string",
          "name": "image",
          "type": "string"
        },
        {
          "internalType": "bytes32",
          "name": "name",
          "type": "bytes32"
        },
        {
          "internalType": "uint256",
          "name": "price",
          "type": "uint256"
        }
      ],
      "name": "addNewItem",
      "outputs": [
        {
          "internalType": "uint256",
          "name": "itemID",
          "type": "uint256"
        }
      ],
      "stateMutability": "nonpayable",
      "type": "function"
    },
    {
      "inputs": [
        {
          "internalType": "uint256",
          "name": "itemID",
          "type": "uint256"
        }
      ],
      "name": "getItem",
      "outputs": [
        {
          "internalType": "string",
          "name": "image",
          "type": "string"
        },
        {
          "internalType": "bytes32",
          "name": "name",
          "type": "bytes32"
        },
        {
          "internalType": "uint256",
          "name": "price",
          "type": "uint256"
        },
        {
          "internalType": "address",
          "name": "seller",
          "type": "address"
        },
        {
          "internalType": "uint256",
          "name": "status",
          "type": "uint256"
        }
      ],
      "stateMutability": "view",
      "type": "function",
      "constant": true
    },
    {
      "inputs": [],
      "name": "getAllItem",
      "outputs": [
        {
          "components": [
            {
              "internalType": "string",
              "name": "image",
              "type": "string"
            },
            {
              "internalType": "bytes32",
              "name": "name",
              "type": "bytes32"
            },
            {
              "internalType": "uint256",
              "name": "price",
              "type": "uint256"
            },
            {
              "internalType": "address",
              "name": "seller",
              "type": "address"
            },
            {
              "internalType": "enum P2P.ItemStatus",
              "name": "status",
              "type": "uint8"
            }
          ],
          "internalType": "struct P2P.Item[]",
          "name": "",
          "type": "tuple[]"
        }
      ],
      "stateMutability": "view",
      "type": "function",
      "constant": true
    },
    {
      "inputs": [
        {
          "internalType": "uint256",
          "name": "itemID",
          "type": "uint256"
        }
      ],
      "name": "buyItem",
      "outputs": [],
      "stateMutability": "payable",
      "type": "function",
      "payable": true
    },
    {
      "inputs": [
        {
          "internalType": "uint256",
          "name": "itemID",
          "type": "uint256"
        }
      ],
      "name": "removeItem",
      "outputs": [],
      "stateMutability": "nonpayable",
      "type": "function"
    },
    {
      "inputs": [],
      "name": "pullFunds",
      "outputs": [
        {
          "internalType": "bool",
          "name": "",
          "type": "bool"
        }
      ],
      "stateMutability": "nonpayable",
      "type": "function"
    }
  ],
  "bytecode": "0x608060405234801561001057600080fd5b506114bf806100206000396000f3fe6080604052600436106100705760003560e01c8063c3662b281161004e578063c3662b281461011c578063d852bc3a14610159578063e43a0bb214610184578063e7fb74c7146101af57610070565b80633129e7731461007557806371329171146100b65780639dc9506a146100df575b600080fd5b34801561008157600080fd5b5061009c60048036038101906100979190610c92565b6101cb565b6040516100ad959493929190610dc1565b60405180910390f35b3480156100c257600080fd5b506100dd60048036038101906100d89190610c92565b61036f565b005b3480156100eb57600080fd5b5061010660048036038101906101019190610f7c565b61051a565b6040516101139190610feb565b60405180910390f35b34801561012857600080fd5b50610143600480360381019061013e9190611032565b6106a0565b6040516101509190610feb565b60405180910390f35b34801561016557600080fd5b5061016e6106b8565b60405161017b9190611285565b60405180910390f35b34801561019057600080fd5b5061019961084e565b6040516101a691906112c2565b60405180910390f35b6101c960048036038101906101c49190610c92565b6109b1565b005b606060008060008085600073ffffffffffffffffffffffffffffffffffffffff1660008281548110610200576101ff6112dd565b5b906000526020600020906004020160030160009054906101000a900473ffffffffffffffffffffffffffffffffffffffff1673ffffffffffffffffffffffffffffffffffffffff160361025257600080fd5b6000808881548110610267576102666112dd565b5b9060005260206000209060040201905080600001816001015482600201548360030160009054906101000a900473ffffffffffffffffffffffffffffffffffffffff168460030160149054906101000a900460ff1660028111156102ce576102cd611102565b5b8480546102da9061133b565b80601f01602080910402602001604051908101604052809291908181526020018280546103069061133b565b80156103535780601f1061032857610100808354040283529160200191610353565b820191906000526020600020905b81548152906001019060200180831161033657829003601f168201915b5050505050945096509650965096509650505091939590929450565b80600073ffffffffffffffffffffffffffffffffffffffff166000828154811061039c5761039b6112dd565b5b906000526020600020906004020160030160009054906101000a900473ffffffffffffffffffffffffffffffffffffffff1673ffffffffffffffffffffffffffffffffffffffff16036103ee57600080fd5b6000808381548110610403576104026112dd565b5b906000526020600020906004020190503373ffffffffffffffffffffffffffffffffffffffff168160030160009054906101000a900473ffffffffffffffffffffffffffffffffffffffff1673ffffffffffffffffffffffffffffffffffffffff161461046f57600080fd5b6000600281111561048357610482611102565b5b8160030160149054906101000a900460ff1660028111156104a7576104a6611102565b5b146104b157600080fd5b60028160030160146101000a81548160ff021916908360028111156104d9576104d8611102565b5b02179055507fa54eda4149a0fb9258911733973ecf1f6762357ed371fc6d1e63123bbce23bed8360405161050d9190610feb565b60405180910390a1505050565b6000806040518060a001604052808681526020018581526020018481526020013373ffffffffffffffffffffffffffffffffffffffff1681526020016000600281111561056a57610569611102565b5b815250908060018154018082558091505060019003906000526020600020906004020160009091909190915060008201518160000190805190602001906105b2929190610ba5565b50602082015181600101556040820151816002015560608201518160030160006101000a81548173ffffffffffffffffffffffffffffffffffffffff021916908373ffffffffffffffffffffffffffffffffffffffff16021790555060808201518160030160146101000a81548160ff0219169083600281111561063957610638611102565b5b0217905550505060006001600080549050610654919061139b565b90507fb244e709633d7b4aca7b47df3cbc74049f32bb1dd40c70287bb0aaf68828ad46818686863360405161068d9594939291906113cf565b60405180910390a1809150509392505050565b60016020528060005260406000206000915090505481565b60606000805480602002602001604051908101604052809291908181526020016000905b8282101561084557838290600052602060002090600402016040518060a001604052908160008201805461070f9061133b565b80601f016020809104026020016040519081016040528092919081815260200182805461073b9061133b565b80156107885780601f1061075d57610100808354040283529160200191610788565b820191906000526020600020905b81548152906001019060200180831161076b57829003601f168201915b5050505050815260200160018201548152602001600282015481526020016003820160009054906101000a900473ffffffffffffffffffffffffffffffffffffffff1673ffffffffffffffffffffffffffffffffffffffff1673ffffffffffffffffffffffffffffffffffffffff1681526020016003820160149054906101000a900460ff1660028111156108205761081f611102565b5b600281111561083257610831611102565b5b81525050815260200190600101906106dc565b50505050905090565b600080600160003373ffffffffffffffffffffffffffffffffffffffff1673ffffffffffffffffffffffffffffffffffffffff168152602001908152602001600020541161089b57600080fd5b6000600160003373ffffffffffffffffffffffffffffffffffffffff1673ffffffffffffffffffffffffffffffffffffffff16815260200190815260200160002054905060003373ffffffffffffffffffffffffffffffffffffffff166108fc839081150290604051600060405180830381858888f19350505050905080156109a7576000600160003373ffffffffffffffffffffffffffffffffffffffff1673ffffffffffffffffffffffffffffffffffffffff168152602001908152602001600020819055507f1a6b3ffc38e569eb77b736c56f6d826b44ad9f3df5f63ec4eac3dcb444668ea53383604051610994929190611429565b60405180910390a16001925050506109ae565b6000925050505b90565b80600073ffffffffffffffffffffffffffffffffffffffff16600082815481106109de576109dd6112dd565b5b906000526020600020906004020160030160009054906101000a900473ffffffffffffffffffffffffffffffffffffffff1673ffffffffffffffffffffffffffffffffffffffff1603610a3057600080fd5b6000808381548110610a4557610a446112dd565b5b9060005260206000209060040201905060006002811115610a6957610a68611102565b5b8160030160149054906101000a900460ff166002811115610a8d57610a8c611102565b5b14610a9757600080fd5b3481600201541015610aa857600080fd5b8060020154600160008360030160009054906101000a900473ffffffffffffffffffffffffffffffffffffffff1673ffffffffffffffffffffffffffffffffffffffff1673ffffffffffffffffffffffffffffffffffffffff1681526020019081526020016000208190555060018160030160146101000a81548160ff02191690836002811115610b3c57610b3b611102565b5b02179055507f3d33dab2887eb74204441fe6858b6ee245b3875af43d57969005ca2ea686395083338360030160009054906101000a900473ffffffffffffffffffffffffffffffffffffffff16604051610b9893929190611452565b60405180910390a1505050565b828054610bb19061133b565b90600052602060002090601f016020900481019282610bd35760008555610c1a565b82601f10610bec57805160ff1916838001178555610c1a565b82800160010185558215610c1a579182015b82811115610c19578251825591602001919060010190610bfe565b5b509050610c279190610c2b565b5090565b5b80821115610c44576000816000905550600101610c2c565b5090565b6000604051905090565b600080fd5b600080fd5b6000819050919050565b610c6f81610c5c565b8114610c7a57600080fd5b50565b600081359050610c8c81610c66565b92915050565b600060208284031215610ca857610ca7610c52565b5b6000610cb684828501610c7d565b91505092915050565b600081519050919050565b600082825260208201905092915050565b60005b83811015610cf9578082015181840152602081019050610cde565b83811115610d08576000848401525b50505050565b6000601f19601f8301169050919050565b6000610d2a82610cbf565b610d348185610cca565b9350610d44818560208601610cdb565b610d4d81610d0e565b840191505092915050565b6000819050919050565b610d6b81610d58565b82525050565b610d7a81610c5c565b82525050565b600073ffffffffffffffffffffffffffffffffffffffff82169050919050565b6000610dab82610d80565b9050919050565b610dbb81610da0565b82525050565b600060a0820190508181036000830152610ddb8188610d1f565b9050610dea6020830187610d62565b610df76040830186610d71565b610e046060830185610db2565b610e116080830184610d71565b9695505050505050565b600080fd5b600080fd5b7f4e487b7100000000000000000000000000000000000000000000000000000000600052604160045260246000fd5b610e5d82610d0e565b810181811067ffffffffffffffff82111715610e7c57610e7b610e25565b5b80604052505050565b6000610e8f610c48565b9050610e9b8282610e54565b919050565b600067ffffffffffffffff821115610ebb57610eba610e25565b5b610ec482610d0e565b9050602081019050919050565b82818337600083830152505050565b6000610ef3610eee84610ea0565b610e85565b905082815260208101848484011115610f0f57610f0e610e20565b5b610f1a848285610ed1565b509392505050565b600082601f830112610f3757610f36610e1b565b5b8135610f47848260208601610ee0565b91505092915050565b610f5981610d58565b8114610f6457600080fd5b50565b600081359050610f7681610f50565b92915050565b600080600060608486031215610f9557610f94610c52565b5b600084013567ffffffffffffffff811115610fb357610fb2610c57565b5b610fbf86828701610f22565b9350506020610fd086828701610f67565b9250506040610fe186828701610c7d565b9150509250925092565b60006020820190506110006000830184610d71565b92915050565b61100f81610da0565b811461101a57600080fd5b50565b60008135905061102c81611006565b92915050565b60006020828403121561104857611047610c52565b5b60006110568482850161101d565b91505092915050565b600081519050919050565b600082825260208201905092915050565b6000819050602082019050919050565b600082825260208201905092915050565b60006110a782610cbf565b6110b1818561108b565b93506110c1818560208601610cdb565b6110ca81610d0e565b840191505092915050565b6110de81610d58565b82525050565b6110ed81610c5c565b82525050565b6110fc81610da0565b82525050565b7f4e487b7100000000000000000000000000000000000000000000000000000000600052602160045260246000fd5b6003811061114257611141611102565b5b50565b600081905061115382611131565b919050565b600061116382611145565b9050919050565b61117381611158565b82525050565b600060a0830160008301518482036000860152611196828261109c565b91505060208301516111ab60208601826110d5565b5060408301516111be60408601826110e4565b5060608301516111d160608601826110f3565b5060808301516111e4608086018261116a565b508091505092915050565b60006111fb8383611179565b905092915050565b6000602082019050919050565b600061121b8261105f565b611225818561106a565b9350836020820285016112378561107b565b8060005b85811015611273578484038952815161125485826111ef565b945061125f83611203565b925060208a0199505060018101905061123b565b50829750879550505050505092915050565b6000602082019050818103600083015261129f8184611210565b905092915050565b60008115159050919050565b6112bc816112a7565b82525050565b60006020820190506112d760008301846112b3565b92915050565b7f4e487b7100000000000000000000000000000000000000000000000000000000600052603260045260246000fd5b7f4e487b7100000000000000000000000000000000000000000000000000000000600052602260045260246000fd5b6000600282049050600182168061135357607f821691505b6020821081036113665761136561130c565b5b50919050565b7f4e487b7100000000000000000000000000000000000000000000000000000000600052601160045260246000fd5b60006113a682610c5c565b91506113b183610c5c565b9250828210156113c4576113c361136c565b5b828203905092915050565b600060a0820190506113e46000830188610d71565b81810360208301526113f68187610d1f565b90506114056040830186610d62565b6114126060830185610d71565b61141f6080830184610db2565b9695505050505050565b600060408201905061143e6000830185610db2565b61144b6020830184610d71565b9392505050565b60006060820190506114676000830186610d71565b6114746020830185610db2565b6114816040830184610db2565b94935050505056fea26469706673582212200ffe37f42425cde37facf14e8bfd02166d9139cafba1273e81aedea51d0e5e5c64736f6c634300080d0033",
  "immutableReferences": {},
  "source": "// SPDX-License-Identifier: MIT\npragma solidity ^0.8.13;\n\ncontract P2P {\n    enum ItemStatus {\n        active,\n        sold,\n        removed\n    }\n\n    struct Item {\n        string image;\n        bytes32 name;\n        uint256 price;\n        address seller;\n        ItemStatus status;\n    }\n\n    event ItemAdded(\n        uint256 id,\n        string image,\n        bytes32 name,\n        uint256 price,\n        address seller\n    );\n    event ItemPurchased(uint256 itemID, address buyer, address seller);\n    event ItemRemoved(uint256 itemID);\n    event FundsPulled(address owner, uint256 amount);\n\n    Item[] private _items;\n    mapping(address => uint256) public _pendingWithdrawals;\n\n    modifier onlyIfItemExists(uint256 itemID) {\n        require(_items[itemID].seller != address(0));\n        _;\n    }\n\n    function addNewItem(\n        string memory image,\n        bytes32 name,\n        uint256 price\n    ) public returns (uint256 itemID) {\n        _items.push(\n            Item({\n                image: image,\n                name: name,\n                price: price,\n                seller: msg.sender,\n                status: ItemStatus.active\n            })\n        );\n\n        uint256 id = _items.length - 1;\n\n        emit ItemAdded(id, image, name, price, msg.sender);\n\n        return id;\n    }\n\n    function getItem(uint256 itemID)\n        public\n        view\n        onlyIfItemExists(itemID)\n        returns (\n            string memory image,\n            bytes32 name,\n            uint256 price,\n            address seller,\n            uint256 status\n        )\n    {\n        Item storage item = _items[itemID];\n        return (\n            item.image,\n            item.name,\n            item.price,\n            item.seller,\n            uint256(item.status)\n        );\n    }\n\n    function getAllItem() public view returns (Item[] memory) {\n        return _items;\n    }\n\n    function buyItem(uint256 itemID) public payable onlyIfItemExists(itemID) {\n        Item storage currentItem = _items[itemID];\n\n        require(currentItem.status == ItemStatus.active);\n        require(currentItem.price >= msg.value);\n\n        _pendingWithdrawals[currentItem.seller] = currentItem.price;\n        currentItem.status = ItemStatus.sold;\n\n        emit ItemPurchased(itemID, msg.sender, currentItem.seller);\n    }\n\n    function removeItem(uint256 itemID) public onlyIfItemExists(itemID) {\n        Item storage currentItem = _items[itemID];\n\n        require(currentItem.seller == msg.sender);\n        require(currentItem.status == ItemStatus.active);\n\n        currentItem.status = ItemStatus.removed;\n\n        emit ItemRemoved(itemID);\n    }\n\n    function pullFunds() public returns (bool) {\n        require(_pendingWithdrawals[msg.sender] > 0);\n\n        uint256 outstandingFundsAmount = _pendingWithdrawals[msg.sender];\n\n        bool sendResult = payable(msg.sender).send(outstandingFundsAmount);\n        if (sendResult) {\n            _pendingWithdrawals[msg.sender] = 0;\n\n            emit FundsPulled(msg.sender, outstandingFundsAmount);\n            return true;\n        } else {\n            return false;\n        }\n    }\n}\n",
  "sourcePath": "D:\\jacky\\Documents\\blockchain-project\\contracts\\P2P.sol",
  "compiler": {
    "name": "solc",
    "version": "0.8.13+commit.abaa5c0e.Emscripten.clang"
  },
  "schemaVersion": "3.4.7",
  "updatedAt": "2022-04-25T10:47:33.009Z",
  "networkType": "ethereum",
  "devdoc": {
    "kind": "dev",
    "methods": {},
    "version": 1
  },
  "userdoc": {
    "kind": "user",
    "methods": {},
    "version": 1
  }
}