{
  "contractName": "P2P",
  "abi": [
    {
      "anonymous": false,
      "inputs": [
        {
          "indexed": false,
          "internalType": "address",
          "name": "owner",
          "type": "address"
        },
        {
          "indexed": false,
          "internalType": "uint256",
          "name": "amount",
          "type": "uint256"
        }
      ],
      "name": "FundsPulled",
      "type": "event"
    },
    {
      "anonymous": false,
      "inputs": [
        {
          "indexed": false,
          "internalType": "uint256",
          "name": "id",
          "type": "uint256"
        },
        {
          "indexed": false,
          "internalType": "bytes32",
          "name": "name",
          "type": "bytes32"
        },
        {
          "indexed": false,
          "internalType": "uint256",
          "name": "price",
          "type": "uint256"
        },
        {
          "indexed": false,
          "internalType": "address",
          "name": "seller",
          "type": "address"
        }
      ],
      "name": "ItemAdded",
      "type": "event"
    },
    {
      "anonymous": false,
      "inputs": [
        {
          "indexed": false,
          "internalType": "uint256",
          "name": "itemID",
          "type": "uint256"
        },
        {
          "indexed": false,
          "internalType": "address",
          "name": "buyer",
          "type": "address"
        },
        {
          "indexed": false,
          "internalType": "address",
          "name": "seller",
          "type": "address"
        }
      ],
      "name": "ItemPurchased",
      "type": "event"
    },
    {
      "anonymous": false,
      "inputs": [
        {
          "indexed": false,
          "internalType": "uint256",
          "name": "itemID",
          "type": "uint256"
        }
      ],
      "name": "ItemRemoved",
      "type": "event"
    },
    {
      "inputs": [
        {
          "internalType": "address",
          "name": "",
          "type": "address"
        }
      ],
      "name": "_pendingWithdrawals",
      "outputs": [
        {
          "internalType": "uint256",
          "name": "",
          "type": "uint256"
        }
      ],
      "stateMutability": "view",
      "type": "function",
      "constant": true
    },
    {
      "inputs": [
        {
          "internalType": "bytes32",
          "name": "name",
          "type": "bytes32"
        },
        {
          "internalType": "uint256",
          "name": "price",
          "type": "uint256"
        }
      ],
      "name": "addNewItem",
      "outputs": [
        {
          "internalType": "uint256",
          "name": "itemID",
          "type": "uint256"
        }
      ],
      "stateMutability": "nonpayable",
      "type": "function"
    },
    {
      "inputs": [
        {
          "internalType": "uint256",
          "name": "itemID",
          "type": "uint256"
        }
      ],
      "name": "getItem",
      "outputs": [
        {
          "internalType": "bytes32",
          "name": "name",
          "type": "bytes32"
        },
        {
          "internalType": "uint256",
          "name": "price",
          "type": "uint256"
        },
        {
          "internalType": "address",
          "name": "seller",
          "type": "address"
        },
        {
          "internalType": "uint256",
          "name": "status",
          "type": "uint256"
        }
      ],
      "stateMutability": "view",
      "type": "function",
      "constant": true
    },
    {
      "inputs": [],
      "name": "getAllItem",
      "outputs": [
        {
          "components": [
            {
              "internalType": "bytes32",
              "name": "name",
              "type": "bytes32"
            },
            {
              "internalType": "uint256",
              "name": "price",
              "type": "uint256"
            },
            {
              "internalType": "address",
              "name": "seller",
              "type": "address"
            },
            {
              "internalType": "enum P2P.ItemStatus",
              "name": "status",
              "type": "uint8"
            }
          ],
          "internalType": "struct P2P.Item[]",
          "name": "",
          "type": "tuple[]"
        }
      ],
      "stateMutability": "view",
      "type": "function",
      "constant": true
    },
    {
      "inputs": [
        {
          "internalType": "uint256",
          "name": "itemID",
          "type": "uint256"
        }
      ],
      "name": "buyItem",
      "outputs": [],
      "stateMutability": "payable",
      "type": "function",
      "payable": true
    },
    {
      "inputs": [
        {
          "internalType": "uint256",
          "name": "itemID",
          "type": "uint256"
        }
      ],
      "name": "removeItem",
      "outputs": [],
      "stateMutability": "nonpayable",
      "type": "function"
    },
    {
      "inputs": [],
      "name": "pullFunds",
      "outputs": [
        {
          "internalType": "bool",
          "name": "",
          "type": "bool"
        }
      ],
      "stateMutability": "nonpayable",
      "type": "function"
    }
  ],
  "bytecode": "0x608060405234801561001057600080fd5b50610fb9806100206000396000f3fe6080604052600436106100705760003560e01c8063c3662b281161004e578063c3662b281461011b578063d852bc3a14610158578063e43a0bb214610183578063e7fb74c7146101ae57610070565b806301338d5d146100755780633129e773146100b257806371329171146100f2575b600080fd5b34801561008157600080fd5b5061009c60048036038101906100979190610ac7565b6101ca565b6040516100a99190610b16565b60405180910390f35b3480156100be57600080fd5b506100d960048036038101906100d49190610b31565b61032a565b6040516100e99493929190610bae565b60405180910390f35b3480156100fe57600080fd5b5061011960048036038101906101149190610b31565b610438565b005b34801561012757600080fd5b50610142600480360381019061013d9190610c1f565b6105e3565b60405161014f9190610b16565b60405180910390f35b34801561016457600080fd5b5061016d6105fb565b60405161017a9190610df4565b60405180910390f35b34801561018f57600080fd5b506101986106ff565b6040516101a59190610e31565b60405180910390f35b6101c860048036038101906101c39190610b31565b610862565b005b60008060405180608001604052808581526020018481526020013373ffffffffffffffffffffffffffffffffffffffff1681526020016000600281111561021457610213610ca5565b5b8152509080600181540180825580915050600190039060005260206000209060030201600090919091909150600082015181600001556020820151816001015560408201518160020160006101000a81548173ffffffffffffffffffffffffffffffffffffffff021916908373ffffffffffffffffffffffffffffffffffffffff16021790555060608201518160020160146101000a81548160ff021916908360028111156102c6576102c5610ca5565b5b02179055505050600060016000805490506102e19190610e7b565b90507fc5e842da9cf570f02fe93b89489aac3cdc207ea5fb6b361f63fbbf53f9e38f9d818585336040516103189493929190610eaf565b60405180910390a18091505092915050565b60008060008084600073ffffffffffffffffffffffffffffffffffffffff166000828154811061035d5761035c610ef4565b5b906000526020600020906003020160020160009054906101000a900473ffffffffffffffffffffffffffffffffffffffff1673ffffffffffffffffffffffffffffffffffffffff16036103af57600080fd5b60008087815481106103c4576103c3610ef4565b5b90600052602060002090600302019050806000015481600101548260020160009054906101000a900473ffffffffffffffffffffffffffffffffffffffff168360020160149054906101000a900460ff16600281111561042757610426610ca5565b5b955095509550955050509193509193565b80600073ffffffffffffffffffffffffffffffffffffffff166000828154811061046557610464610ef4565b5b906000526020600020906003020160020160009054906101000a900473ffffffffffffffffffffffffffffffffffffffff1673ffffffffffffffffffffffffffffffffffffffff16036104b757600080fd5b60008083815481106104cc576104cb610ef4565b5b906000526020600020906003020190503373ffffffffffffffffffffffffffffffffffffffff168160020160009054906101000a900473ffffffffffffffffffffffffffffffffffffffff1673ffffffffffffffffffffffffffffffffffffffff161461053857600080fd5b6000600281111561054c5761054b610ca5565b5b8160020160149054906101000a900460ff1660028111156105705761056f610ca5565b5b1461057a57600080fd5b60028160020160146101000a81548160ff021916908360028111156105a2576105a1610ca5565b5b02179055507fa54eda4149a0fb9258911733973ecf1f6762357ed371fc6d1e63123bbce23bed836040516105d69190610b16565b60405180910390a1505050565b60016020528060005260406000206000915090505481565b60606000805480602002602001604051908101604052809291908181526020016000905b828210156106f6578382906000526020600020906003020160405180608001604052908160008201548152602001600182015481526020016002820160009054906101000a900473ffffffffffffffffffffffffffffffffffffffff1673ffffffffffffffffffffffffffffffffffffffff1673ffffffffffffffffffffffffffffffffffffffff1681526020016002820160149054906101000a900460ff1660028111156106d1576106d0610ca5565b5b60028111156106e3576106e2610ca5565b5b815250508152602001906001019061061f565b50505050905090565b600080600160003373ffffffffffffffffffffffffffffffffffffffff1673ffffffffffffffffffffffffffffffffffffffff168152602001908152602001600020541161074c57600080fd5b6000600160003373ffffffffffffffffffffffffffffffffffffffff1673ffffffffffffffffffffffffffffffffffffffff16815260200190815260200160002054905060003373ffffffffffffffffffffffffffffffffffffffff166108fc839081150290604051600060405180830381858888f1935050505090508015610858576000600160003373ffffffffffffffffffffffffffffffffffffffff1673ffffffffffffffffffffffffffffffffffffffff168152602001908152602001600020819055507f1a6b3ffc38e569eb77b736c56f6d826b44ad9f3df5f63ec4eac3dcb444668ea53383604051610845929190610f23565b60405180910390a160019250505061085f565b6000925050505b90565b80600073ffffffffffffffffffffffffffffffffffffffff166000828154811061088f5761088e610ef4565b5b906000526020600020906003020160020160009054906101000a900473ffffffffffffffffffffffffffffffffffffffff1673ffffffffffffffffffffffffffffffffffffffff16036108e157600080fd5b60008083815481106108f6576108f5610ef4565b5b906000526020600020906003020190506000600281111561091a57610919610ca5565b5b8160020160149054906101000a900460ff16600281111561093e5761093d610ca5565b5b1461094857600080fd5b348160010154101561095957600080fd5b8060010154600160008360020160009054906101000a900473ffffffffffffffffffffffffffffffffffffffff1673ffffffffffffffffffffffffffffffffffffffff1673ffffffffffffffffffffffffffffffffffffffff1681526020019081526020016000208190555060018160020160146101000a81548160ff021916908360028111156109ed576109ec610ca5565b5b02179055507f3d33dab2887eb74204441fe6858b6ee245b3875af43d57969005ca2ea686395083338360020160009054906101000a900473ffffffffffffffffffffffffffffffffffffffff16604051610a4993929190610f4c565b60405180910390a1505050565b600080fd5b6000819050919050565b610a6e81610a5b565b8114610a7957600080fd5b50565b600081359050610a8b81610a65565b92915050565b6000819050919050565b610aa481610a91565b8114610aaf57600080fd5b50565b600081359050610ac181610a9b565b92915050565b60008060408385031215610ade57610add610a56565b5b6000610aec85828601610a7c565b9250506020610afd85828601610ab2565b9150509250929050565b610b1081610a91565b82525050565b6000602082019050610b2b6000830184610b07565b92915050565b600060208284031215610b4757610b46610a56565b5b6000610b5584828501610ab2565b91505092915050565b610b6781610a5b565b82525050565b600073ffffffffffffffffffffffffffffffffffffffff82169050919050565b6000610b9882610b6d565b9050919050565b610ba881610b8d565b82525050565b6000608082019050610bc36000830187610b5e565b610bd06020830186610b07565b610bdd6040830185610b9f565b610bea6060830184610b07565b95945050505050565b610bfc81610b8d565b8114610c0757600080fd5b50565b600081359050610c1981610bf3565b92915050565b600060208284031215610c3557610c34610a56565b5b6000610c4384828501610c0a565b91505092915050565b600081519050919050565b600082825260208201905092915050565b6000819050602082019050919050565b610c8181610a5b565b82525050565b610c9081610a91565b82525050565b610c9f81610b8d565b82525050565b7f4e487b7100000000000000000000000000000000000000000000000000000000600052602160045260246000fd5b60038110610ce557610ce4610ca5565b5b50565b6000819050610cf682610cd4565b919050565b6000610d0682610ce8565b9050919050565b610d1681610cfb565b82525050565b608082016000820151610d326000850182610c78565b506020820151610d456020850182610c87565b506040820151610d586040850182610c96565b506060820151610d6b6060850182610d0d565b50505050565b6000610d7d8383610d1c565b60808301905092915050565b6000602082019050919050565b6000610da182610c4c565b610dab8185610c57565b9350610db683610c68565b8060005b83811015610de7578151610dce8882610d71565b9750610dd983610d89565b925050600181019050610dba565b5085935050505092915050565b60006020820190508181036000830152610e0e8184610d96565b905092915050565b60008115159050919050565b610e2b81610e16565b82525050565b6000602082019050610e466000830184610e22565b92915050565b7f4e487b7100000000000000000000000000000000000000000000000000000000600052601160045260246000fd5b6000610e8682610a91565b9150610e9183610a91565b925082821015610ea457610ea3610e4c565b5b828203905092915050565b6000608082019050610ec46000830187610b07565b610ed16020830186610b5e565b610ede6040830185610b07565b610eeb6060830184610b9f565b95945050505050565b7f4e487b7100000000000000000000000000000000000000000000000000000000600052603260045260246000fd5b6000604082019050610f386000830185610b9f565b610f456020830184610b07565b9392505050565b6000606082019050610f616000830186610b07565b610f6e6020830185610b9f565b610f7b6040830184610b9f565b94935050505056fea2646970667358221220beeeaeebc5d7ad0785cd3274396b7e0bcd29b3d364df54b375184efdd2c1821364736f6c634300080d0033",
  "immutableReferences": {},
  "source": "// SPDX-License-Identifier: MIT\npragma solidity ^0.8.13;\n\ncontract P2P {\n    enum ItemStatus {\n        active,\n        sold,\n        removed\n    }\n\n    struct Item {\n        bytes32 name;\n        uint256 price;\n        address seller;\n        ItemStatus status;\n    }\n\n    event ItemAdded(uint256 id, bytes32 name, uint256 price, address seller);\n    event ItemPurchased(uint256 itemID, address buyer, address seller);\n    event ItemRemoved(uint256 itemID);\n    event FundsPulled(address owner, uint256 amount);\n\n    Item[] private _items;\n    mapping(address => uint256) public _pendingWithdrawals;\n\n    modifier onlyIfItemExists(uint256 itemID) {\n        require(_items[itemID].seller != address(0));\n        _;\n    }\n\n    function addNewItem(bytes32 name, uint256 price)\n        public\n        returns (uint256 itemID)\n    {\n        _items.push(\n            Item({\n                name: name,\n                price: price,\n                seller: msg.sender,\n                status: ItemStatus.active\n            })\n        );\n\n        uint256 id = _items.length - 1;\n\n        emit ItemAdded(id, name, price, msg.sender);\n\n        return id;\n    }\n\n    function getItem(uint256 itemID)\n        public\n        view\n        onlyIfItemExists(itemID)\n        returns (\n            bytes32 name,\n            uint256 price,\n            address seller,\n            uint256 status\n        )\n    {\n        Item storage item = _items[itemID];\n        return (item.name, item.price, item.seller, uint256(item.status));\n    }\n\n    function getAllItem() public view returns (Item[] memory) {\n        return _items;\n    }\n\n    function buyItem(uint256 itemID) public payable onlyIfItemExists(itemID) {\n        Item storage currentItem = _items[itemID];\n\n        require(currentItem.status == ItemStatus.active);\n        require(currentItem.price >= msg.value);\n\n        _pendingWithdrawals[currentItem.seller] = currentItem.price;\n        currentItem.status = ItemStatus.sold;\n\n        emit ItemPurchased(itemID, msg.sender, currentItem.seller);\n    }\n\n    function removeItem(uint256 itemID) public onlyIfItemExists(itemID) {\n        Item storage currentItem = _items[itemID];\n\n        require(currentItem.seller == msg.sender);\n        require(currentItem.status == ItemStatus.active);\n\n        currentItem.status = ItemStatus.removed;\n\n        emit ItemRemoved(itemID);\n    }\n\n    function pullFunds() public returns (bool) {\n        require(_pendingWithdrawals[msg.sender] > 0);\n\n        uint256 outstandingFundsAmount = _pendingWithdrawals[msg.sender];\n\n        bool sendResult = payable(msg.sender).send(outstandingFundsAmount);\n        if (sendResult) {\n            _pendingWithdrawals[msg.sender] = 0;\n\n            emit FundsPulled(msg.sender, outstandingFundsAmount);\n            return true;\n        } else {\n            return false;\n        }\n    }\n}\n",
  "sourcePath": "D:\\jacky\\Documents\\blockchain-project\\contracts\\P2P.sol",
  "compiler": {
    "name": "solc",
    "version": "0.8.13+commit.abaa5c0e.Emscripten.clang"
  },
  "schemaVersion": "3.4.7",
  "updatedAt": "2022-04-25T03:05:05.758Z",
  "networkType": "ethereum",
  "devdoc": {
    "kind": "dev",
    "methods": {},
    "version": 1
  },
  "userdoc": {
    "kind": "user",
    "methods": {},
    "version": 1
  }
}